:100000000C9434000C9449000C9449000C94490061
:100010000C9449000C9449000C9449000C9449003C
:100020000C9449000C9449000C9449000C9449002C
:100030000C9449000C9449000C9449000C9449001C
:100040000C9449000C9449000C9449000C9449000C
:100050000C9449000C9449000C9449000C944900FC
:100060000C9449000C94490011241FBECFEFD8E036
:10007000DEBFCDBF11E0A0E0B1E0E0E5F4E002C0FA
:1000800005900D92A834B107D9F70E949A010C94FB
:1000900026020C94000082E68093B80084E08093EE
:1000A000BC001092B900089584EA8093BC00ECEB88
:1000B000F0E080818823ECF708958093BB0084E80A
:1000C0008093BC00ECEBF0E080818823ECF708958E
:1000D000992364F040E050E029E730E021503109F5
:1000E000E9F74F5F5F4F84179507B4F70895EBEB7F
:1000F000F0E080818260808384E88093BC00ECEB38
:10010000F0E080818823ECF781E090E00E946800B5
:10011000EBEBF0E080818D7F808384E88093BC00EE
:10012000ECEBF0E080818823ECF70895EBEBF0E056
:1001300090819E7F908394E89093BC00ECEBF0E07C
:1001400090819923ECF7EBEBF0E090819F70908326
:1001500094E89093BC00ECEBF0E090819923ECF7ED
:10016000EBEBF0E09081807F892B808384E88093A3
:10017000BC00ECEBF0E080818823ECF70E94770074
:100180000895CF93C82FEBEBF0E080818E7F8083C2
:1001900084E88093BC00ECEBF0E080818823ECF7EE
:1001A000EBEBF0E080818F70808384E88093BC006B
:1001B000ECEBF0E080818823ECF7EBEBF0E0808162
:1001C0009C2F907F892B808384E88093BC00ECEB8C
:1001D000F0E080818823ECF70E947700EBEBF0E001
:1001E00080818F70808384E88093BC00ECEBF0E02A
:1001F00080818823ECF7EBEBF0E0208130E1C39FB6
:10020000C0011124822B808384E88093BC00ECEB36
:10021000F0E080818823ECF70E947700CF91089569
:1002200080E30E94960080E30E94960080E20E9494
:10023000960088E20E94C1008CE00E94C10081E02B
:100240000E94C10086E00E94C10080E80E94C100B7
:100250000895CF93C82FEBEBF0E08081816080831D
:1002600084E88093BC00ECEBF0E080818823ECF71D
:10027000EBEBF0E080818F70808384E88093BC009A
:10028000ECEBF0E080818823ECF7EBEBF0E0808191
:100290009C2F907F892B808384E88093BC00ECEBBB
:1002A000F0E080818823ECF70E947700EBEBF0E030
:1002B00080818F70808384E88093BC00ECEBF0E059
:1002C00080818823ECF7EBEBF0E0208130E1C39FE5
:1002D000C0011124822B808384E88093BC00ECEB66
:1002E000F0E080818823ECF70E947700CF91089599
:1002F000CF93DF93EC018881882331F021960E940F
:10030000290189918111FBCFDF91CF9108959093BD
:10031000C5008093C40088E18093C10086E080938B
:10032000C2000895E0ECF0E0908195FFFDCF80934E
:10033000C6000895CF93DF93CDB7DEB7C854D10977
:100340000FB6F894DEBF0FBECDBF87E690E00E94E7
:1003500087018AB1806E8AB92D982C98299828989F
:100360000E944B000E94540080E70E945D000E94A2
:10037000100180E1E0E0F1E0DE01119601900D92C4
:100380008A95E1F780E1E0E1F1E0DE01519601902C
:100390000D928A95E1F784E1E0E2F1E0DE019196C9
:1003A00001900D928A95E1F784E1E4E3F1E0DE014A
:1003B000D59601900D928A95E1F71D9B0CC05F9A2E
:1003C00081E30E94920180E80E94C100CE01019663
:1003D0000E9478010BC05F9880E30E94920180E840
:1003E0000E94C100CE0181960E9478011C9B0CC026
:1003F0005E9A82E30E94920183EC0E94C100CE01CA
:1004000041960E9478010BC05E9880E30E949201A1
:1004100083EC0E94C100CE01C5960E947801199913
:1004200002C0189B05C05D9A83E30E94920104C03C
:100430005D9880E30E9492012FEF83EC99E02150B8
:1004400080409040E1F700C00000B7CFF894FFCFA4
:10045000536C6F742031206176616C69626C650049
:10046000536C6F742032206176616C69626C650038
:10047000536C6F742031204E6F74206176616C690B
:10048000626C6500536C6F742032204E6F74206173
:0804900076616C69626C650085
:00000001FF
